{
  "_format": "hh-sol-artifact-1",
  "contractName": "LiquidityPool",
  "sourceName": "contracts/LiquidityPool.sol",
  "abi": [
    {
      "inputs": [],
      "stateMutability": "nonpayable",
      "type": "constructor"
    },
    {
      "anonymous": false,
      "inputs": [
        {
          "indexed": true,
          "internalType": "address",
          "name": "borrower",
          "type": "address"
        },
        {
          "indexed": false,
          "internalType": "uint256",
          "name": "amount",
          "type": "uint256"
        },
        {
          "indexed": false,
          "internalType": "uint256",
          "name": "timestamp",
          "type": "uint256"
        }
      ],
      "name": "Borrowed",
      "type": "event"
    },
    {
      "anonymous": false,
      "inputs": [
        {
          "indexed": true,
          "internalType": "address",
          "name": "payer",
          "type": "address"
        },
        {
          "indexed": false,
          "internalType": "uint256",
          "name": "amount",
          "type": "uint256"
        },
        {
          "indexed": false,
          "internalType": "uint256",
          "name": "timestamp",
          "type": "uint256"
        }
      ],
      "name": "Repaid",
      "type": "event"
    },
    {
      "inputs": [
        {
          "internalType": "uint256",
          "name": "amount",
          "type": "uint256"
        }
      ],
      "name": "borrow",
      "outputs": [],
      "stateMutability": "nonpayable",
      "type": "function"
    },
    {
      "inputs": [
        {
          "internalType": "address",
          "name": "",
          "type": "address"
        }
      ],
      "name": "borrowTimestamp",
      "outputs": [
        {
          "internalType": "uint256",
          "name": "",
          "type": "uint256"
        }
      ],
      "stateMutability": "view",
      "type": "function"
    },
    {
      "inputs": [
        {
          "internalType": "address",
          "name": "",
          "type": "address"
        }
      ],
      "name": "creditScore",
      "outputs": [
        {
          "internalType": "uint8",
          "name": "",
          "type": "uint8"
        }
      ],
      "stateMutability": "view",
      "type": "function"
    },
    {
      "inputs": [
        {
          "internalType": "uint256",
          "name": "amount",
          "type": "uint256"
        }
      ],
      "name": "extract",
      "outputs": [],
      "stateMutability": "nonpayable",
      "type": "function"
    },
    {
      "inputs": [],
      "name": "getBalance",
      "outputs": [
        {
          "internalType": "uint256",
          "name": "",
          "type": "uint256"
        }
      ],
      "stateMutability": "view",
      "type": "function"
    },
    {
      "inputs": [],
      "name": "getMyDebt",
      "outputs": [
        {
          "internalType": "uint256",
          "name": "",
          "type": "uint256"
        }
      ],
      "stateMutability": "view",
      "type": "function"
    },
    {
      "inputs": [],
      "name": "owner",
      "outputs": [
        {
          "internalType": "address",
          "name": "",
          "type": "address"
        }
      ],
      "stateMutability": "view",
      "type": "function"
    },
    {
      "inputs": [],
      "name": "repay",
      "outputs": [],
      "stateMutability": "payable",
      "type": "function"
    },
    {
      "inputs": [
        {
          "internalType": "address",
          "name": "user",
          "type": "address"
        },
        {
          "internalType": "uint8",
          "name": "score",
          "type": "uint8"
        }
      ],
      "name": "setCreditScore",
      "outputs": [],
      "stateMutability": "nonpayable",
      "type": "function"
    },
    {
      "inputs": [],
      "name": "totalFunds",
      "outputs": [
        {
          "internalType": "uint256",
          "name": "",
          "type": "uint256"
        }
      ],
      "stateMutability": "view",
      "type": "function"
    },
    {
      "inputs": [
        {
          "internalType": "address",
          "name": "",
          "type": "address"
        }
      ],
      "name": "userDebt",
      "outputs": [
        {
          "internalType": "uint256",
          "name": "",
          "type": "uint256"
        }
      ],
      "stateMutability": "view",
      "type": "function"
    },
    {
      "stateMutability": "payable",
      "type": "receive"
    }
  ],
  "bytecode": "0x6080604052348015600f57600080fd5b50336000806101000a81548173ffffffffffffffffffffffffffffffffffffffff021916908373ffffffffffffffffffffffffffffffffffffffff1602179055506111378061005f6000396000f3fe6080604052600436106100a05760003560e01c80638da5cb5b116100645780638da5cb5b14610176578063968ed600146101a1578063b69e5c77146101cc578063c5ebeaec14610209578063d29255f914610232578063f7e590ee1461026f576100bf565b806312065fe0146100c4578063402d8883146100ef578063450a375a146100f95780635ca63fb11461012457806385b397821461014d576100bf565b366100bf5734600160008282546100b79190610abf565b925050819055005b600080fd5b3480156100d057600080fd5b506100d96102ac565b6040516100e69190610b02565b60405180910390f35b6100f76102b4565b005b34801561010557600080fd5b5061010e6104cc565b60405161011b9190610b02565b60405180910390f35b34801561013057600080fd5b5061014b60048036038101906101469190610bb9565b610513565b005b34801561015957600080fd5b50610174600480360381019061016f9190610c25565b610644565b005b34801561018257600080fd5b5061018b610798565b6040516101989190610c61565b60405180910390f35b3480156101ad57600080fd5b506101b66107bc565b6040516101c39190610b02565b60405180910390f35b3480156101d857600080fd5b506101f360048036038101906101ee9190610c7c565b6107c2565b6040516102009190610b02565b60405180910390f35b34801561021557600080fd5b50610230600480360381019061022b9190610c25565b6107da565b005b34801561023e57600080fd5b5061025960048036038101906102549190610c7c565b610a4e565b6040516102669190610b02565b60405180910390f35b34801561027b57600080fd5b5061029660048036038101906102919190610c7c565b610a66565b6040516102a39190610cb8565b60405180910390f35b600047905090565b6000600260003373ffffffffffffffffffffffffffffffffffffffff1673ffffffffffffffffffffffffffffffffffffffff1681526020019081526020016000205411610336576040517f08c379a000000000000000000000000000000000000000000000000000000000815260040161032d90610d30565b60405180910390fd5b60003411610379576040517f08c379a000000000000000000000000000000000000000000000000000000000815260040161037090610d9c565b60405180910390fd5b6000600260003373ffffffffffffffffffffffffffffffffffffffff1673ffffffffffffffffffffffffffffffffffffffff1681526020019081526020016000205434116103c75734610408565b600260003373ffffffffffffffffffffffffffffffffffffffff1673ffffffffffffffffffffffffffffffffffffffff168152602001908152602001600020545b905080600260003373ffffffffffffffffffffffffffffffffffffffff1673ffffffffffffffffffffffffffffffffffffffff16815260200190815260200160002060008282546104599190610dbc565b9250508190555080600160008282546104729190610abf565b925050819055503373ffffffffffffffffffffffffffffffffffffffff167f1b8cd61ed43bec7c6bdad3a18ffee613f99c853d16c50678d248d879e1b4343882426040516104c1929190610df0565b60405180910390a250565b6000600260003373ffffffffffffffffffffffffffffffffffffffff1673ffffffffffffffffffffffffffffffffffffffff16815260200190815260200160002054905090565b60008054906101000a900473ffffffffffffffffffffffffffffffffffffffff1673ffffffffffffffffffffffffffffffffffffffff163373ffffffffffffffffffffffffffffffffffffffff16146105a1576040517f08c379a000000000000000000000000000000000000000000000000000000000815260040161059890610e65565b60405180910390fd5b60648160ff1611156105e8576040517f08c379a00000000000000000000000000000000000000000000000000000000081526004016105df90610ed1565b60405180910390fd5b80600360008473ffffffffffffffffffffffffffffffffffffffff1673ffffffffffffffffffffffffffffffffffffffff16815260200190815260200160002060006101000a81548160ff021916908360ff1602179055505050565b60008054906101000a900473ffffffffffffffffffffffffffffffffffffffff1673ffffffffffffffffffffffffffffffffffffffff163373ffffffffffffffffffffffffffffffffffffffff16146106d2576040517f08c379a00000000000000000000000000000000000000000000000000000000081526004016106c990610e65565b60405180910390fd5b47811115610715576040517f08c379a000000000000000000000000000000000000000000000000000000000815260040161070c90610f3d565b60405180910390fd5b80600160008282546107279190610dbc565b9250508190555060008054906101000a900473ffffffffffffffffffffffffffffffffffffffff1673ffffffffffffffffffffffffffffffffffffffff166108fc829081150290604051600060405180830381858888f19350505050158015610794573d6000803e3d6000fd5b5050565b60008054906101000a900473ffffffffffffffffffffffffffffffffffffffff1681565b60015481565b60026020528060005260406000206000915090505481565b6000811161081d576040517f08c379a000000000000000000000000000000000000000000000000000000000815260040161081490610fa9565b60405180910390fd5b603c600360003373ffffffffffffffffffffffffffffffffffffffff1673ffffffffffffffffffffffffffffffffffffffff16815260200190815260200160002060009054906101000a900460ff1660ff1610156108b0576040517f08c379a00000000000000000000000000000000000000000000000000000000081526004016108a790611015565b60405180910390fd5b60026001546108bf9190611064565b811115610901576040517f08c379a00000000000000000000000000000000000000000000000000000000081526004016108f8906110e1565b60405180910390fd5b80600260003373ffffffffffffffffffffffffffffffffffffffff1673ffffffffffffffffffffffffffffffffffffffff16815260200190815260200160002060008282546109509190610abf565b9250508190555080600160008282546109699190610dbc565b9250508190555042600460003373ffffffffffffffffffffffffffffffffffffffff1673ffffffffffffffffffffffffffffffffffffffff168152602001908152602001600020819055503373ffffffffffffffffffffffffffffffffffffffff166108fc829081150290604051600060405180830381858888f193505050501580156109fa573d6000803e3d6000fd5b503373ffffffffffffffffffffffffffffffffffffffff167feae9cfbc77fdd40ca899f36b608256063b2bc9d8178b0220f7ad513e178d67308242604051610a43929190610df0565b60405180910390a250565b60046020528060005260406000206000915090505481565b60036020528060005260406000206000915054906101000a900460ff1681565b6000819050919050565b7f4e487b7100000000000000000000000000000000000000000000000000000000600052601160045260246000fd5b6000610aca82610a86565b9150610ad583610a86565b9250828201905080821115610aed57610aec610a90565b5b92915050565b610afc81610a86565b82525050565b6000602082019050610b176000830184610af3565b92915050565b600080fd5b600073ffffffffffffffffffffffffffffffffffffffff82169050919050565b6000610b4d82610b22565b9050919050565b610b5d81610b42565b8114610b6857600080fd5b50565b600081359050610b7a81610b54565b92915050565b600060ff82169050919050565b610b9681610b80565b8114610ba157600080fd5b50565b600081359050610bb381610b8d565b92915050565b60008060408385031215610bd057610bcf610b1d565b5b6000610bde85828601610b6b565b9250506020610bef85828601610ba4565b9150509250929050565b610c0281610a86565b8114610c0d57600080fd5b50565b600081359050610c1f81610bf9565b92915050565b600060208284031215610c3b57610c3a610b1d565b5b6000610c4984828501610c10565b91505092915050565b610c5b81610b42565b82525050565b6000602082019050610c766000830184610c52565b92915050565b600060208284031215610c9257610c91610b1d565b5b6000610ca084828501610b6b565b91505092915050565b610cb281610b80565b82525050565b6000602082019050610ccd6000830184610ca9565b92915050565b600082825260208201905092915050565b7f4e6f206f75747374616e64696e67206465627400000000000000000000000000600082015250565b6000610d1a601383610cd3565b9150610d2582610ce4565b602082019050919050565b60006020820190508181036000830152610d4981610d0d565b9050919050565b7f4d7573742073656e642045544820746f20726570617900000000000000000000600082015250565b6000610d86601683610cd3565b9150610d9182610d50565b602082019050919050565b60006020820190508181036000830152610db581610d79565b9050919050565b6000610dc782610a86565b9150610dd283610a86565b9250828203905081811115610dea57610de9610a90565b5b92915050565b6000604082019050610e056000830185610af3565b610e126020830184610af3565b9392505050565b7f4e6f74206f776e65720000000000000000000000000000000000000000000000600082015250565b6000610e4f600983610cd3565b9150610e5a82610e19565b602082019050919050565b60006020820190508181036000830152610e7e81610e42565b9050919050565b7f496e76616c6964206372656469742073636f7265000000000000000000000000600082015250565b6000610ebb601483610cd3565b9150610ec682610e85565b602082019050919050565b60006020820190508181036000830152610eea81610eae565b9050919050565b7f496e73756666696369656e742062616c616e6365000000000000000000000000600082015250565b6000610f27601483610cd3565b9150610f3282610ef1565b602082019050919050565b60006020820190508181036000830152610f5681610f1a565b9050919050565b7f416d6f756e74206d7573742062652067726561746572207468616e2030000000600082015250565b6000610f93601d83610cd3565b9150610f9e82610f5d565b602082019050919050565b60006020820190508181036000830152610fc281610f86565b9050919050565b7f4372656469742073636f726520746f6f206c6f77000000000000000000000000600082015250565b6000610fff601483610cd3565b915061100a82610fc9565b602082019050919050565b6000602082019050818103600083015261102e81610ff2565b9050919050565b7f4e487b7100000000000000000000000000000000000000000000000000000000600052601260045260246000fd5b600061106f82610a86565b915061107a83610a86565b92508261108a57611089611035565b5b828204905092915050565b7f496e73756666696369656e742066756e647320696e2074686520706f6f6c0000600082015250565b60006110cb601e83610cd3565b91506110d682611095565b602082019050919050565b600060208201905081810360008301526110fa816110be565b905091905056fea2646970667358221220de1cac485dacc24b8db85ce175e67ab89f4f64bbbe1ecc7e24bb84165c4f391f64736f6c634300081c0033",
  "linkReferences": {},
  "deployedLinkReferences": {}
}