{
  "_format": "hh-sol-artifact-1",
  "contractName": "LiquidityPool",
  "sourceName": "contracts/LiquidityPool.sol",
  "abi": [
    {
      "inputs": [],
      "stateMutability": "nonpayable",
      "type": "constructor"
    },
    {
      "inputs": [
        {
          "internalType": "uint256",
          "name": "amount",
          "type": "uint256"
        }
      ],
      "name": "borrow",
      "outputs": [],
      "stateMutability": "nonpayable",
      "type": "function"
    },
    {
      "inputs": [
        {
          "internalType": "uint256",
          "name": "amount",
          "type": "uint256"
        }
      ],
      "name": "extract",
      "outputs": [],
      "stateMutability": "nonpayable",
      "type": "function"
    },
    {
      "inputs": [],
      "name": "getBalance",
      "outputs": [
        {
          "internalType": "uint256",
          "name": "",
          "type": "uint256"
        }
      ],
      "stateMutability": "view",
      "type": "function"
    },
    {
      "inputs": [],
      "name": "getMyDebt",
      "outputs": [
        {
          "internalType": "uint256",
          "name": "",
          "type": "uint256"
        }
      ],
      "stateMutability": "view",
      "type": "function"
    },
    {
      "inputs": [],
      "name": "owner",
      "outputs": [
        {
          "internalType": "address",
          "name": "",
          "type": "address"
        }
      ],
      "stateMutability": "view",
      "type": "function"
    },
    {
      "inputs": [],
      "name": "repay",
      "outputs": [],
      "stateMutability": "payable",
      "type": "function"
    },
    {
      "inputs": [],
      "name": "totalFunds",
      "outputs": [
        {
          "internalType": "uint256",
          "name": "",
          "type": "uint256"
        }
      ],
      "stateMutability": "view",
      "type": "function"
    },
    {
      "inputs": [
        {
          "internalType": "address",
          "name": "",
          "type": "address"
        }
      ],
      "name": "userDebt",
      "outputs": [
        {
          "internalType": "uint256",
          "name": "",
          "type": "uint256"
        }
      ],
      "stateMutability": "view",
      "type": "function"
    },
    {
      "stateMutability": "payable",
      "type": "receive"
    }
  ],
  "bytecode": "0x6080604052348015600f57600080fd5b50336000806101000a81548173ffffffffffffffffffffffffffffffffffffffff021916908373ffffffffffffffffffffffffffffffffffffffff160217905550610bef8061005f6000396000f3fe60806040526004361061007f5760003560e01c80638da5cb5b1161004e5780638da5cb5b1461012c578063968ed60014610157578063b69e5c7714610182578063c5ebeaec146101bf5761009e565b806312065fe0146100a3578063402d8883146100ce578063450a375a146100d857806385b39782146101035761009e565b3661009e573460016000828254610096919061071b565b925050819055005b600080fd5b3480156100af57600080fd5b506100b86101e8565b6040516100c5919061075e565b60405180910390f35b6100d66101f0565b005b3480156100e457600080fd5b506100ed6103b8565b6040516100fa919061075e565b60405180910390f35b34801561010f57600080fd5b5061012a600480360381019061012591906107aa565b6103ff565b005b34801561013857600080fd5b50610141610553565b60405161014e9190610818565b60405180910390f35b34801561016357600080fd5b5061016c610577565b604051610179919061075e565b60405180910390f35b34801561018e57600080fd5b506101a960048036038101906101a4919061085f565b61057d565b6040516101b6919061075e565b60405180910390f35b3480156101cb57600080fd5b506101e660048036038101906101e191906107aa565b610595565b005b600047905090565b6000600260003373ffffffffffffffffffffffffffffffffffffffff1673ffffffffffffffffffffffffffffffffffffffff1681526020019081526020016000205411610272576040517f08c379a0000000000000000000000000000000000000000000000000000000008152600401610269906108e9565b60405180910390fd5b600034116102b5576040517f08c379a00000000000000000000000000000000000000000000000000000000081526004016102ac90610955565b60405180910390fd5b6000600260003373ffffffffffffffffffffffffffffffffffffffff1673ffffffffffffffffffffffffffffffffffffffff1681526020019081526020016000205434116103035734610344565b600260003373ffffffffffffffffffffffffffffffffffffffff1673ffffffffffffffffffffffffffffffffffffffff168152602001908152602001600020545b905080600260003373ffffffffffffffffffffffffffffffffffffffff1673ffffffffffffffffffffffffffffffffffffffff16815260200190815260200160002060008282546103959190610975565b9250508190555080600160008282546103ae919061071b565b9250508190555050565b6000600260003373ffffffffffffffffffffffffffffffffffffffff1673ffffffffffffffffffffffffffffffffffffffff16815260200190815260200160002054905090565b60008054906101000a900473ffffffffffffffffffffffffffffffffffffffff1673ffffffffffffffffffffffffffffffffffffffff163373ffffffffffffffffffffffffffffffffffffffff161461048d576040517f08c379a0000000000000000000000000000000000000000000000000000000008152600401610484906109f5565b60405180910390fd5b478111156104d0576040517f08c379a00000000000000000000000000000000000000000000000000000000081526004016104c790610a61565b60405180910390fd5b80600160008282546104e29190610975565b9250508190555060008054906101000a900473ffffffffffffffffffffffffffffffffffffffff1673ffffffffffffffffffffffffffffffffffffffff166108fc829081150290604051600060405180830381858888f1935050505015801561054f573d6000803e3d6000fd5b5050565b60008054906101000a900473ffffffffffffffffffffffffffffffffffffffff1681565b60015481565b60026020528060005260406000206000915090505481565b600081116105d8576040517f08c379a00000000000000000000000000000000000000000000000000000000081526004016105cf90610acd565b60405180910390fd5b60026001546105e79190610b1c565b811115610629576040517f08c379a000000000000000000000000000000000000000000000000000000000815260040161062090610b99565b60405180910390fd5b80600260003373ffffffffffffffffffffffffffffffffffffffff1673ffffffffffffffffffffffffffffffffffffffff1681526020019081526020016000206000828254610678919061071b565b9250508190555080600160008282546106919190610975565b925050819055503373ffffffffffffffffffffffffffffffffffffffff166108fc829081150290604051600060405180830381858888f193505050501580156106de573d6000803e3d6000fd5b5050565b6000819050919050565b7f4e487b7100000000000000000000000000000000000000000000000000000000600052601160045260246000fd5b6000610726826106e2565b9150610731836106e2565b9250828201905080821115610749576107486106ec565b5b92915050565b610758816106e2565b82525050565b6000602082019050610773600083018461074f565b92915050565b600080fd5b610787816106e2565b811461079257600080fd5b50565b6000813590506107a48161077e565b92915050565b6000602082840312156107c0576107bf610779565b5b60006107ce84828501610795565b91505092915050565b600073ffffffffffffffffffffffffffffffffffffffff82169050919050565b6000610802826107d7565b9050919050565b610812816107f7565b82525050565b600060208201905061082d6000830184610809565b92915050565b61083c816107f7565b811461084757600080fd5b50565b60008135905061085981610833565b92915050565b60006020828403121561087557610874610779565b5b60006108838482850161084a565b91505092915050565b600082825260208201905092915050565b7f4e6f206f75747374616e64696e67206465627400000000000000000000000000600082015250565b60006108d360138361088c565b91506108de8261089d565b602082019050919050565b60006020820190508181036000830152610902816108c6565b9050919050565b7f4d7573742073656e642045544820746f20726570617900000000000000000000600082015250565b600061093f60168361088c565b915061094a82610909565b602082019050919050565b6000602082019050818103600083015261096e81610932565b9050919050565b6000610980826106e2565b915061098b836106e2565b92508282039050818111156109a3576109a26106ec565b5b92915050565b7f4e6f74206f776e65720000000000000000000000000000000000000000000000600082015250565b60006109df60098361088c565b91506109ea826109a9565b602082019050919050565b60006020820190508181036000830152610a0e816109d2565b9050919050565b7f496e73756666696369656e742062616c616e6365000000000000000000000000600082015250565b6000610a4b60148361088c565b9150610a5682610a15565b602082019050919050565b60006020820190508181036000830152610a7a81610a3e565b9050919050565b7f416d6f756e74206d7573742062652067726561746572207468616e2030000000600082015250565b6000610ab7601d8361088c565b9150610ac282610a81565b602082019050919050565b60006020820190508181036000830152610ae681610aaa565b9050919050565b7f4e487b7100000000000000000000000000000000000000000000000000000000600052601260045260246000fd5b6000610b27826106e2565b9150610b32836106e2565b925082610b4257610b41610aed565b5b828204905092915050565b7f496e73756666696369656e742066756e647320696e2074686520706f6f6c0000600082015250565b6000610b83601e8361088c565b9150610b8e82610b4d565b602082019050919050565b60006020820190508181036000830152610bb281610b76565b905091905056fea2646970667358221220947057e8b803f2cc07dbf199e80d854eea52d06074de20568bdb9c819db5aa5064736f6c634300081c0033",
  "linkReferences": {},
  "deployedLinkReferences": {}
}