{
  "_format": "hh-sol-artifact-1",
  "contractName": "LiquidityPool",
  "sourceName": "contracts/LiquidityPool.sol",
  "abi": [
    {
      "inputs": [],
      "stateMutability": "nonpayable",
      "type": "constructor"
    },
    {
      "anonymous": false,
      "inputs": [
        {
          "indexed": true,
          "internalType": "address",
          "name": "borrower",
          "type": "address"
        },
        {
          "indexed": false,
          "internalType": "uint256",
          "name": "amount",
          "type": "uint256"
        },
        {
          "indexed": false,
          "internalType": "uint256",
          "name": "timestamp",
          "type": "uint256"
        }
      ],
      "name": "Borrowed",
      "type": "event"
    },
    {
      "anonymous": false,
      "inputs": [
        {
          "indexed": true,
          "internalType": "address",
          "name": "payer",
          "type": "address"
        },
        {
          "indexed": false,
          "internalType": "uint256",
          "name": "amount",
          "type": "uint256"
        },
        {
          "indexed": false,
          "internalType": "uint256",
          "name": "timestamp",
          "type": "uint256"
        }
      ],
      "name": "Repaid",
      "type": "event"
    },
    {
      "inputs": [
        {
          "internalType": "uint256",
          "name": "amount",
          "type": "uint256"
        }
      ],
      "name": "borrow",
      "outputs": [],
      "stateMutability": "nonpayable",
      "type": "function"
    },
    {
      "inputs": [
        {
          "internalType": "address",
          "name": "",
          "type": "address"
        }
      ],
      "name": "borrowTimestamp",
      "outputs": [
        {
          "internalType": "uint256",
          "name": "",
          "type": "uint256"
        }
      ],
      "stateMutability": "view",
      "type": "function"
    },
    {
      "inputs": [
        {
          "internalType": "address",
          "name": "",
          "type": "address"
        }
      ],
      "name": "creditScore",
      "outputs": [
        {
          "internalType": "uint8",
          "name": "",
          "type": "uint8"
        }
      ],
      "stateMutability": "view",
      "type": "function"
    },
    {
      "inputs": [
        {
          "internalType": "uint256",
          "name": "amount",
          "type": "uint256"
        }
      ],
      "name": "extract",
      "outputs": [],
      "stateMutability": "nonpayable",
      "type": "function"
    },
    {
      "inputs": [],
      "name": "getBalance",
      "outputs": [
        {
          "internalType": "uint256",
          "name": "",
          "type": "uint256"
        }
      ],
      "stateMutability": "view",
      "type": "function"
    },
    {
      "inputs": [],
      "name": "getMyDebt",
      "outputs": [
        {
          "internalType": "uint256",
          "name": "",
          "type": "uint256"
        }
      ],
      "stateMutability": "view",
      "type": "function"
    },
    {
      "inputs": [],
      "name": "locked",
      "outputs": [
        {
          "internalType": "bool",
          "name": "",
          "type": "bool"
        }
      ],
      "stateMutability": "view",
      "type": "function"
    },
    {
      "inputs": [],
      "name": "owner",
      "outputs": [
        {
          "internalType": "address",
          "name": "",
          "type": "address"
        }
      ],
      "stateMutability": "view",
      "type": "function"
    },
    {
      "inputs": [],
      "name": "repay",
      "outputs": [],
      "stateMutability": "payable",
      "type": "function"
    },
    {
      "inputs": [
        {
          "internalType": "address",
          "name": "user",
          "type": "address"
        },
        {
          "internalType": "uint8",
          "name": "score",
          "type": "uint8"
        }
      ],
      "name": "setCreditScore",
      "outputs": [],
      "stateMutability": "nonpayable",
      "type": "function"
    },
    {
      "inputs": [],
      "name": "totalFunds",
      "outputs": [
        {
          "internalType": "uint256",
          "name": "",
          "type": "uint256"
        }
      ],
      "stateMutability": "view",
      "type": "function"
    },
    {
      "inputs": [
        {
          "internalType": "address",
          "name": "newOwner",
          "type": "address"
        }
      ],
      "name": "transferOwnership",
      "outputs": [],
      "stateMutability": "nonpayable",
      "type": "function"
    },
    {
      "inputs": [
        {
          "internalType": "address",
          "name": "",
          "type": "address"
        }
      ],
      "name": "userDebt",
      "outputs": [
        {
          "internalType": "uint256",
          "name": "",
          "type": "uint256"
        }
      ],
      "stateMutability": "view",
      "type": "function"
    },
    {
      "stateMutability": "payable",
      "type": "receive"
    }
  ],
  "bytecode": "0x6080604052348015600f57600080fd5b50336000806101000a81548173ffffffffffffffffffffffffffffffffffffffff021916908373ffffffffffffffffffffffffffffffffffffffff1602179055506116d98061005f6000396000f3fe6080604052600436106100c65760003560e01c8063968ed6001161007f578063cf30901211610059578063cf30901214610258578063d29255f914610283578063f2fde38b146102c0578063f7e590ee146102e9576100e5565b8063968ed600146101c7578063b69e5c77146101f2578063c5ebeaec1461022f576100e5565b806312065fe0146100ea578063402d888314610115578063450a375a1461011f5780635ca63fb11461014a57806385b39782146101735780638da5cb5b1461019c576100e5565b366100e55734600160008282546100dd9190610ee7565b925050819055005b600080fd5b3480156100f657600080fd5b506100ff610326565b60405161010c9190610f2a565b60405180910390f35b61011d61032e565b005b34801561012b57600080fd5b50610134610546565b6040516101419190610f2a565b60405180910390f35b34801561015657600080fd5b50610171600480360381019061016c9190610fe1565b61058d565b005b34801561017f57600080fd5b5061019a6004803603810190610195919061104d565b61079d565b005b3480156101a857600080fd5b506101b1610977565b6040516101be9190611089565b60405180910390f35b3480156101d357600080fd5b506101dc61099b565b6040516101e99190610f2a565b60405180910390f35b3480156101fe57600080fd5b50610219600480360381019061021491906110a4565b6109a1565b6040516102269190610f2a565b60405180910390f35b34801561023b57600080fd5b506102566004803603810190610251919061104d565b6109b9565b005b34801561026457600080fd5b5061026d610cb3565b60405161027a91906110ec565b60405180910390f35b34801561028f57600080fd5b506102aa60048036038101906102a591906110a4565b610cc6565b6040516102b79190610f2a565b60405180910390f35b3480156102cc57600080fd5b506102e760048036038101906102e291906110a4565b610cde565b005b3480156102f557600080fd5b50610310600480360381019061030b91906110a4565b610e8e565b60405161031d9190611116565b60405180910390f35b600047905090565b6000600360003373ffffffffffffffffffffffffffffffffffffffff1673ffffffffffffffffffffffffffffffffffffffff16815260200190815260200160002054116103b0576040517f08c379a00000000000000000000000000000000000000000000000000000000081526004016103a79061118e565b60405180910390fd5b600034116103f3576040517f08c379a00000000000000000000000000000000000000000000000000000000081526004016103ea906111fa565b60405180910390fd5b6000600360003373ffffffffffffffffffffffffffffffffffffffff1673ffffffffffffffffffffffffffffffffffffffff1681526020019081526020016000205434116104415734610482565b600360003373ffffffffffffffffffffffffffffffffffffffff1673ffffffffffffffffffffffffffffffffffffffff168152602001908152602001600020545b905080600360003373ffffffffffffffffffffffffffffffffffffffff1673ffffffffffffffffffffffffffffffffffffffff16815260200190815260200160002060008282546104d3919061121a565b9250508190555080600160008282546104ec9190610ee7565b925050819055503373ffffffffffffffffffffffffffffffffffffffff167f1b8cd61ed43bec7c6bdad3a18ffee613f99c853d16c50678d248d879e1b43438824260405161053b92919061124e565b60405180910390a250565b6000600360003373ffffffffffffffffffffffffffffffffffffffff1673ffffffffffffffffffffffffffffffffffffffff16815260200190815260200160002054905090565b60008054906101000a900473ffffffffffffffffffffffffffffffffffffffff1673ffffffffffffffffffffffffffffffffffffffff163373ffffffffffffffffffffffffffffffffffffffff161461061b576040517f08c379a0000000000000000000000000000000000000000000000000000000008152600401610612906112c3565b60405180910390fd5b81600073ffffffffffffffffffffffffffffffffffffffff168173ffffffffffffffffffffffffffffffffffffffff160361068b576040517f08c379a00000000000000000000000000000000000000000000000000000000081526004016106829061132f565b60405180910390fd5b3073ffffffffffffffffffffffffffffffffffffffff168173ffffffffffffffffffffffffffffffffffffffff16036106f9576040517f08c379a00000000000000000000000000000000000000000000000000000000081526004016106f09061139b565b60405180910390fd5b60648260ff161115610740576040517f08c379a000000000000000000000000000000000000000000000000000000000815260040161073790611407565b60405180910390fd5b81600460008573ffffffffffffffffffffffffffffffffffffffff1673ffffffffffffffffffffffffffffffffffffffff16815260200190815260200160002060006101000a81548160ff021916908360ff160217905550505050565b60008054906101000a900473ffffffffffffffffffffffffffffffffffffffff1673ffffffffffffffffffffffffffffffffffffffff163373ffffffffffffffffffffffffffffffffffffffff161461082b576040517f08c379a0000000000000000000000000000000000000000000000000000000008152600401610822906112c3565b60405180910390fd5b600260009054906101000a900460ff161561087b576040517f08c379a000000000000000000000000000000000000000000000000000000000815260040161087290611473565b60405180910390fd5b6001600260006101000a81548160ff021916908315150217905550478111156108d9576040517f08c379a00000000000000000000000000000000000000000000000000000000081526004016108d0906114df565b60405180910390fd5b80600160008282546108eb919061121a565b9250508190555060008054906101000a900473ffffffffffffffffffffffffffffffffffffffff1673ffffffffffffffffffffffffffffffffffffffff166108fc829081150290604051600060405180830381858888f19350505050158015610958573d6000803e3d6000fd5b506000600260006101000a81548160ff02191690831515021790555050565b60008054906101000a900473ffffffffffffffffffffffffffffffffffffffff1681565b60015481565b60036020528060005260406000206000915090505481565b600260009054906101000a900460ff1615610a09576040517f08c379a0000000000000000000000000000000000000000000000000000000008152600401610a0090611473565b60405180910390fd5b6001600260006101000a81548160ff02191690831515021790555060008111610a67576040517f08c379a0000000000000000000000000000000000000000000000000000000008152600401610a5e9061154b565b60405180910390fd5b603c600460003373ffffffffffffffffffffffffffffffffffffffff1673ffffffffffffffffffffffffffffffffffffffff16815260200190815260200160002060009054906101000a900460ff1660ff161015610afa576040517f08c379a0000000000000000000000000000000000000000000000000000000008152600401610af1906115b7565b60405180910390fd5b6002600154610b099190611606565b811115610b4b576040517f08c379a0000000000000000000000000000000000000000000000000000000008152600401610b4290611683565b60405180910390fd5b80600360003373ffffffffffffffffffffffffffffffffffffffff1673ffffffffffffffffffffffffffffffffffffffff1681526020019081526020016000206000828254610b9a9190610ee7565b925050819055508060016000828254610bb3919061121a565b9250508190555042600560003373ffffffffffffffffffffffffffffffffffffffff1673ffffffffffffffffffffffffffffffffffffffff168152602001908152602001600020819055503373ffffffffffffffffffffffffffffffffffffffff166108fc829081150290604051600060405180830381858888f19350505050158015610c44573d6000803e3d6000fd5b503373ffffffffffffffffffffffffffffffffffffffff167feae9cfbc77fdd40ca899f36b608256063b2bc9d8178b0220f7ad513e178d67308242604051610c8d92919061124e565b60405180910390a26000600260006101000a81548160ff02191690831515021790555050565b600260009054906101000a900460ff1681565b60056020528060005260406000206000915090505481565b60008054906101000a900473ffffffffffffffffffffffffffffffffffffffff1673ffffffffffffffffffffffffffffffffffffffff163373ffffffffffffffffffffffffffffffffffffffff1614610d6c576040517f08c379a0000000000000000000000000000000000000000000000000000000008152600401610d63906112c3565b60405180910390fd5b80600073ffffffffffffffffffffffffffffffffffffffff168173ffffffffffffffffffffffffffffffffffffffff1603610ddc576040517f08c379a0000000000000000000000000000000000000000000000000000000008152600401610dd39061132f565b60405180910390fd5b3073ffffffffffffffffffffffffffffffffffffffff168173ffffffffffffffffffffffffffffffffffffffff1603610e4a576040517f08c379a0000000000000000000000000000000000000000000000000000000008152600401610e419061139b565b60405180910390fd5b816000806101000a81548173ffffffffffffffffffffffffffffffffffffffff021916908373ffffffffffffffffffffffffffffffffffffffff1602179055505050565b60046020528060005260406000206000915054906101000a900460ff1681565b6000819050919050565b7f4e487b7100000000000000000000000000000000000000000000000000000000600052601160045260246000fd5b6000610ef282610eae565b9150610efd83610eae565b9250828201905080821115610f1557610f14610eb8565b5b92915050565b610f2481610eae565b82525050565b6000602082019050610f3f6000830184610f1b565b92915050565b600080fd5b600073ffffffffffffffffffffffffffffffffffffffff82169050919050565b6000610f7582610f4a565b9050919050565b610f8581610f6a565b8114610f9057600080fd5b50565b600081359050610fa281610f7c565b92915050565b600060ff82169050919050565b610fbe81610fa8565b8114610fc957600080fd5b50565b600081359050610fdb81610fb5565b92915050565b60008060408385031215610ff857610ff7610f45565b5b600061100685828601610f93565b925050602061101785828601610fcc565b9150509250929050565b61102a81610eae565b811461103557600080fd5b50565b60008135905061104781611021565b92915050565b60006020828403121561106357611062610f45565b5b600061107184828501611038565b91505092915050565b61108381610f6a565b82525050565b600060208201905061109e600083018461107a565b92915050565b6000602082840312156110ba576110b9610f45565b5b60006110c884828501610f93565b91505092915050565b60008115159050919050565b6110e6816110d1565b82525050565b600060208201905061110160008301846110dd565b92915050565b61111081610fa8565b82525050565b600060208201905061112b6000830184611107565b92915050565b600082825260208201905092915050565b7f4e6f206f75747374616e64696e67206465627400000000000000000000000000600082015250565b6000611178601383611131565b915061118382611142565b602082019050919050565b600060208201905081810360008301526111a78161116b565b9050919050565b7f4d7573742073656e642045544820746f20726570617900000000000000000000600082015250565b60006111e4601683611131565b91506111ef826111ae565b602082019050919050565b60006020820190508181036000830152611213816111d7565b9050919050565b600061122582610eae565b915061123083610eae565b925082820390508181111561124857611247610eb8565b5b92915050565b60006040820190506112636000830185610f1b565b6112706020830184610f1b565b9392505050565b7f4e6f74206f776e65720000000000000000000000000000000000000000000000600082015250565b60006112ad600983611131565b91506112b882611277565b602082019050919050565b600060208201905081810360008301526112dc816112a0565b9050919050565b7f496e76616c696420616464726573733a207a65726f2061646472657373000000600082015250565b6000611319601d83611131565b9150611324826112e3565b602082019050919050565b600060208201905081810360008301526113488161130c565b9050919050565b7f496e76616c696420616464726573733a2073656c660000000000000000000000600082015250565b6000611385601583611131565b91506113908261134f565b602082019050919050565b600060208201905081810360008301526113b481611378565b9050919050565b7f496e76616c6964206372656469742073636f7265000000000000000000000000600082015250565b60006113f1601483611131565b91506113fc826113bb565b602082019050919050565b60006020820190508181036000830152611420816113e4565b9050919050565b7f4e6f207265656e7472616e637900000000000000000000000000000000000000600082015250565b600061145d600d83611131565b915061146882611427565b602082019050919050565b6000602082019050818103600083015261148c81611450565b9050919050565b7f496e73756666696369656e742062616c616e6365000000000000000000000000600082015250565b60006114c9601483611131565b91506114d482611493565b602082019050919050565b600060208201905081810360008301526114f8816114bc565b9050919050565b7f416d6f756e74206d7573742062652067726561746572207468616e2030000000600082015250565b6000611535601d83611131565b9150611540826114ff565b602082019050919050565b6000602082019050818103600083015261156481611528565b9050919050565b7f4372656469742073636f726520746f6f206c6f77000000000000000000000000600082015250565b60006115a1601483611131565b91506115ac8261156b565b602082019050919050565b600060208201905081810360008301526115d081611594565b9050919050565b7f4e487b7100000000000000000000000000000000000000000000000000000000600052601260045260246000fd5b600061161182610eae565b915061161c83610eae565b92508261162c5761162b6115d7565b5b828204905092915050565b7f496e73756666696369656e742066756e647320696e2074686520706f6f6c0000600082015250565b600061166d601e83611131565b915061167882611637565b602082019050919050565b6000602082019050818103600083015261169c81611660565b905091905056fea2646970667358221220b17b31938c2a7de11edb92d5cdf51fff6935129b71f8c96180b544134af1c1c764736f6c634300081c0033",
  "linkReferences": {},
  "deployedLinkReferences": {}
}