{
  "_format": "hh-sol-artifact-1",
  "contractName": "LiquidityPool",
  "sourceName": "contracts/LiquidityPool.sol",
  "abi": [
    {
      "inputs": [],
      "stateMutability": "nonpayable",
      "type": "constructor"
    },
    {
      "inputs": [
        {
          "internalType": "uint256",
          "name": "amount",
          "type": "uint256"
        }
      ],
      "name": "extract",
      "outputs": [],
      "stateMutability": "nonpayable",
      "type": "function"
    },
    {
      "inputs": [],
      "name": "getBalance",
      "outputs": [
        {
          "internalType": "uint256",
          "name": "",
          "type": "uint256"
        }
      ],
      "stateMutability": "view",
      "type": "function"
    },
    {
      "inputs": [],
      "name": "owner",
      "outputs": [
        {
          "internalType": "address",
          "name": "",
          "type": "address"
        }
      ],
      "stateMutability": "view",
      "type": "function"
    },
    {
      "inputs": [],
      "name": "totalFunds",
      "outputs": [
        {
          "internalType": "uint256",
          "name": "",
          "type": "uint256"
        }
      ],
      "stateMutability": "view",
      "type": "function"
    },
    {
      "stateMutability": "payable",
      "type": "receive"
    }
  ],
  "bytecode": "0x6080604052348015600f57600080fd5b50336000806101000a81548173ffffffffffffffffffffffffffffffffffffffff021916908373ffffffffffffffffffffffffffffffffffffffff16021790555061053b8061005f6000396000f3fe6080604052600436106100435760003560e01c806312065fe01461006757806385b39782146100925780638da5cb5b146100bb578063968ed600146100e657610062565b3661006257346001600082825461005a91906102d0565b925050819055005b600080fd5b34801561007357600080fd5b5061007c610111565b6040516100899190610313565b60405180910390f35b34801561009e57600080fd5b506100b960048036038101906100b4919061035f565b610119565b005b3480156100c757600080fd5b506100d061026d565b6040516100dd91906103cd565b60405180910390f35b3480156100f257600080fd5b506100fb610291565b6040516101089190610313565b60405180910390f35b600047905090565b60008054906101000a900473ffffffffffffffffffffffffffffffffffffffff1673ffffffffffffffffffffffffffffffffffffffff163373ffffffffffffffffffffffffffffffffffffffff16146101a7576040517f08c379a000000000000000000000000000000000000000000000000000000000815260040161019e90610445565b60405180910390fd5b478111156101ea576040517f08c379a00000000000000000000000000000000000000000000000000000000081526004016101e1906104b1565b60405180910390fd5b80600160008282546101fc91906104d1565b9250508190555060008054906101000a900473ffffffffffffffffffffffffffffffffffffffff1673ffffffffffffffffffffffffffffffffffffffff166108fc829081150290604051600060405180830381858888f19350505050158015610269573d6000803e3d6000fd5b5050565b60008054906101000a900473ffffffffffffffffffffffffffffffffffffffff1681565b60015481565b6000819050919050565b7f4e487b7100000000000000000000000000000000000000000000000000000000600052601160045260246000fd5b60006102db82610297565b91506102e683610297565b92508282019050808211156102fe576102fd6102a1565b5b92915050565b61030d81610297565b82525050565b60006020820190506103286000830184610304565b92915050565b600080fd5b61033c81610297565b811461034757600080fd5b50565b60008135905061035981610333565b92915050565b6000602082840312156103755761037461032e565b5b60006103838482850161034a565b91505092915050565b600073ffffffffffffffffffffffffffffffffffffffff82169050919050565b60006103b78261038c565b9050919050565b6103c7816103ac565b82525050565b60006020820190506103e260008301846103be565b92915050565b600082825260208201905092915050565b7f4e6f74206f776e65720000000000000000000000000000000000000000000000600082015250565b600061042f6009836103e8565b915061043a826103f9565b602082019050919050565b6000602082019050818103600083015261045e81610422565b9050919050565b7f496e73756666696369656e742062616c616e6365000000000000000000000000600082015250565b600061049b6014836103e8565b91506104a682610465565b602082019050919050565b600060208201905081810360008301526104ca8161048e565b9050919050565b60006104dc82610297565b91506104e783610297565b92508282039050818111156104ff576104fe6102a1565b5b9291505056fea264697066735822122025b243c3f8c6a6ce31c882adf76c2c4819def44392ae4f9ae7a51dc543d78c2064736f6c634300081c0033",
  "linkReferences": {},
  "deployedLinkReferences": {}
}