{
  "_format": "hh-sol-artifact-1",
  "contractName": "LiquidityPoolV1",
  "sourceName": "contracts/LiquidityPoolV1.sol",
  "abi": [
    {
      "inputs": [],
      "name": "InvalidInitialization",
      "type": "error"
    },
    {
      "inputs": [],
      "name": "NotInitializing",
      "type": "error"
    },
    {
      "anonymous": false,
      "inputs": [
        {
          "indexed": true,
          "internalType": "address",
          "name": "borrower",
          "type": "address"
        },
        {
          "indexed": false,
          "internalType": "uint256",
          "name": "amount",
          "type": "uint256"
        },
        {
          "indexed": false,
          "internalType": "uint256",
          "name": "timestamp",
          "type": "uint256"
        }
      ],
      "name": "Borrowed",
      "type": "event"
    },
    {
      "anonymous": false,
      "inputs": [
        {
          "indexed": false,
          "internalType": "uint64",
          "name": "version",
          "type": "uint64"
        }
      ],
      "name": "Initialized",
      "type": "event"
    },
    {
      "anonymous": false,
      "inputs": [
        {
          "indexed": true,
          "internalType": "address",
          "name": "payer",
          "type": "address"
        },
        {
          "indexed": false,
          "internalType": "uint256",
          "name": "amount",
          "type": "uint256"
        },
        {
          "indexed": false,
          "internalType": "uint256",
          "name": "timestamp",
          "type": "uint256"
        }
      ],
      "name": "Repaid",
      "type": "event"
    },
    {
      "inputs": [
        {
          "internalType": "uint256",
          "name": "amount",
          "type": "uint256"
        }
      ],
      "name": "borrow",
      "outputs": [],
      "stateMutability": "nonpayable",
      "type": "function"
    },
    {
      "inputs": [
        {
          "internalType": "address",
          "name": "",
          "type": "address"
        }
      ],
      "name": "borrowTimestamp",
      "outputs": [
        {
          "internalType": "uint256",
          "name": "",
          "type": "uint256"
        }
      ],
      "stateMutability": "view",
      "type": "function"
    },
    {
      "inputs": [
        {
          "internalType": "address",
          "name": "",
          "type": "address"
        }
      ],
      "name": "creditScore",
      "outputs": [
        {
          "internalType": "uint8",
          "name": "",
          "type": "uint8"
        }
      ],
      "stateMutability": "view",
      "type": "function"
    },
    {
      "inputs": [
        {
          "internalType": "uint256",
          "name": "amount",
          "type": "uint256"
        }
      ],
      "name": "extract",
      "outputs": [],
      "stateMutability": "nonpayable",
      "type": "function"
    },
    {
      "inputs": [],
      "name": "getBalance",
      "outputs": [
        {
          "internalType": "uint256",
          "name": "",
          "type": "uint256"
        }
      ],
      "stateMutability": "view",
      "type": "function"
    },
    {
      "inputs": [],
      "name": "getMyDebt",
      "outputs": [
        {
          "internalType": "uint256",
          "name": "",
          "type": "uint256"
        }
      ],
      "stateMutability": "view",
      "type": "function"
    },
    {
      "inputs": [
        {
          "internalType": "address",
          "name": "_owner",
          "type": "address"
        }
      ],
      "name": "initialize",
      "outputs": [],
      "stateMutability": "nonpayable",
      "type": "function"
    },
    {
      "inputs": [],
      "name": "locked",
      "outputs": [
        {
          "internalType": "bool",
          "name": "",
          "type": "bool"
        }
      ],
      "stateMutability": "view",
      "type": "function"
    },
    {
      "inputs": [],
      "name": "owner",
      "outputs": [
        {
          "internalType": "address",
          "name": "",
          "type": "address"
        }
      ],
      "stateMutability": "view",
      "type": "function"
    },
    {
      "inputs": [],
      "name": "repay",
      "outputs": [],
      "stateMutability": "payable",
      "type": "function"
    },
    {
      "inputs": [
        {
          "internalType": "address",
          "name": "user",
          "type": "address"
        },
        {
          "internalType": "uint8",
          "name": "score",
          "type": "uint8"
        }
      ],
      "name": "setCreditScore",
      "outputs": [],
      "stateMutability": "nonpayable",
      "type": "function"
    },
    {
      "inputs": [],
      "name": "totalFunds",
      "outputs": [
        {
          "internalType": "uint256",
          "name": "",
          "type": "uint256"
        }
      ],
      "stateMutability": "view",
      "type": "function"
    },
    {
      "inputs": [
        {
          "internalType": "address",
          "name": "newOwner",
          "type": "address"
        }
      ],
      "name": "transferOwnership",
      "outputs": [],
      "stateMutability": "nonpayable",
      "type": "function"
    },
    {
      "inputs": [
        {
          "internalType": "address",
          "name": "",
          "type": "address"
        }
      ],
      "name": "userDebt",
      "outputs": [
        {
          "internalType": "uint256",
          "name": "",
          "type": "uint256"
        }
      ],
      "stateMutability": "view",
      "type": "function"
    },
    {
      "stateMutability": "payable",
      "type": "receive"
    }
  ],
  "bytecode": "0x6080604052348015600f57600080fd5b506119968061001f6000396000f3fe6080604052600436106100e15760003560e01c8063b69e5c771161007f578063cf30901211610059578063cf3090121461029c578063d29255f9146102c7578063f2fde38b14610304578063f7e590ee1461032d57610100565b8063b69e5c771461020d578063c4d66de81461024a578063c5ebeaec1461027357610100565b80635ca63fb1116100bb5780635ca63fb11461016557806385b397821461018e5780638da5cb5b146101b7578063968ed600146101e257610100565b806312065fe014610105578063402d888314610130578063450a375a1461013a57610100565b366101005734600160008282546100f89190611130565b925050819055005b600080fd5b34801561011157600080fd5b5061011a61036a565b6040516101279190611173565b60405180910390f35b610138610372565b005b34801561014657600080fd5b5061014f61058a565b60405161015c9190611173565b60405180910390f35b34801561017157600080fd5b5061018c6004803603810190610187919061122a565b6105d1565b005b34801561019a57600080fd5b506101b560048036038101906101b09190611296565b6107e1565b005b3480156101c357600080fd5b506101cc6109bb565b6040516101d991906112d2565b60405180910390f35b3480156101ee57600080fd5b506101f76109df565b6040516102049190611173565b60405180910390f35b34801561021957600080fd5b50610234600480360381019061022f91906112ed565b6109e5565b6040516102419190611173565b60405180910390f35b34801561025657600080fd5b50610271600480360381019061026c91906112ed565b6109fd565b005b34801561027f57600080fd5b5061029a60048036038101906102959190611296565b610bc3565b005b3480156102a857600080fd5b506102b1610ebd565b6040516102be9190611335565b60405180910390f35b3480156102d357600080fd5b506102ee60048036038101906102e991906112ed565b610ed0565b6040516102fb9190611173565b60405180910390f35b34801561031057600080fd5b5061032b600480360381019061032691906112ed565b610ee8565b005b34801561033957600080fd5b50610354600480360381019061034f91906112ed565b611098565b604051610361919061135f565b60405180910390f35b600047905090565b6000600360003373ffffffffffffffffffffffffffffffffffffffff1673ffffffffffffffffffffffffffffffffffffffff16815260200190815260200160002054116103f4576040517f08c379a00000000000000000000000000000000000000000000000000000000081526004016103eb906113d7565b60405180910390fd5b60003411610437576040517f08c379a000000000000000000000000000000000000000000000000000000000815260040161042e90611443565b60405180910390fd5b6000600360003373ffffffffffffffffffffffffffffffffffffffff1673ffffffffffffffffffffffffffffffffffffffff16815260200190815260200160002054341161048557346104c6565b600360003373ffffffffffffffffffffffffffffffffffffffff1673ffffffffffffffffffffffffffffffffffffffff168152602001908152602001600020545b905080600360003373ffffffffffffffffffffffffffffffffffffffff1673ffffffffffffffffffffffffffffffffffffffff16815260200190815260200160002060008282546105179190611463565b9250508190555080600160008282546105309190611130565b925050819055503373ffffffffffffffffffffffffffffffffffffffff167f1b8cd61ed43bec7c6bdad3a18ffee613f99c853d16c50678d248d879e1b43438824260405161057f929190611497565b60405180910390a250565b6000600360003373ffffffffffffffffffffffffffffffffffffffff1673ffffffffffffffffffffffffffffffffffffffff16815260200190815260200160002054905090565b60008054906101000a900473ffffffffffffffffffffffffffffffffffffffff1673ffffffffffffffffffffffffffffffffffffffff163373ffffffffffffffffffffffffffffffffffffffff161461065f576040517f08c379a00000000000000000000000000000000000000000000000000000000081526004016106569061150c565b60405180910390fd5b81600073ffffffffffffffffffffffffffffffffffffffff168173ffffffffffffffffffffffffffffffffffffffff16036106cf576040517f08c379a00000000000000000000000000000000000000000000000000000000081526004016106c690611578565b60405180910390fd5b3073ffffffffffffffffffffffffffffffffffffffff168173ffffffffffffffffffffffffffffffffffffffff160361073d576040517f08c379a0000000000000000000000000000000000000000000000000000000008152600401610734906115e4565b60405180910390fd5b60648260ff161115610784576040517f08c379a000000000000000000000000000000000000000000000000000000000815260040161077b90611650565b60405180910390fd5b81600460008573ffffffffffffffffffffffffffffffffffffffff1673ffffffffffffffffffffffffffffffffffffffff16815260200190815260200160002060006101000a81548160ff021916908360ff160217905550505050565b60008054906101000a900473ffffffffffffffffffffffffffffffffffffffff1673ffffffffffffffffffffffffffffffffffffffff163373ffffffffffffffffffffffffffffffffffffffff161461086f576040517f08c379a00000000000000000000000000000000000000000000000000000000081526004016108669061150c565b60405180910390fd5b600260009054906101000a900460ff16156108bf576040517f08c379a00000000000000000000000000000000000000000000000000000000081526004016108b6906116bc565b60405180910390fd5b6001600260006101000a81548160ff0219169083151502179055504781111561091d576040517f08c379a000000000000000000000000000000000000000000000000000000000815260040161091490611728565b60405180910390fd5b806001600082825461092f9190611463565b9250508190555060008054906101000a900473ffffffffffffffffffffffffffffffffffffffff1673ffffffffffffffffffffffffffffffffffffffff166108fc829081150290604051600060405180830381858888f1935050505015801561099c573d6000803e3d6000fd5b506000600260006101000a81548160ff02191690831515021790555050565b60008054906101000a900473ffffffffffffffffffffffffffffffffffffffff1681565b60015481565b60036020528060005260406000206000915090505481565b6000610a076110b8565b905060008160000160089054906101000a900460ff1615905060008260000160009054906101000a900467ffffffffffffffff1690506000808267ffffffffffffffff16148015610a555750825b9050600060018367ffffffffffffffff16148015610a8a575060003073ffffffffffffffffffffffffffffffffffffffff163b145b905081158015610a98575080155b15610acf576040517ff92ee8a900000000000000000000000000000000000000000000000000000000815260040160405180910390fd5b60018560000160006101000a81548167ffffffffffffffff021916908367ffffffffffffffff1602179055508315610b1f5760018560000160086101000a81548160ff0219169083151502179055505b856000806101000a81548173ffffffffffffffffffffffffffffffffffffffff021916908373ffffffffffffffffffffffffffffffffffffffff1602179055508315610bbb5760008560000160086101000a81548160ff0219169083151502179055507fc7f505b2f371ae2175ee4913f4499e1f2633a7b5936321eed1cdaeb6115181d26001604051610bb291906117a1565b60405180910390a15b505050505050565b600260009054906101000a900460ff1615610c13576040517f08c379a0000000000000000000000000000000000000000000000000000000008152600401610c0a906116bc565b60405180910390fd5b6001600260006101000a81548160ff02191690831515021790555060008111610c71576040517f08c379a0000000000000000000000000000000000000000000000000000000008152600401610c6890611808565b60405180910390fd5b603c600460003373ffffffffffffffffffffffffffffffffffffffff1673ffffffffffffffffffffffffffffffffffffffff16815260200190815260200160002060009054906101000a900460ff1660ff161015610d04576040517f08c379a0000000000000000000000000000000000000000000000000000000008152600401610cfb90611874565b60405180910390fd5b6002600154610d1391906118c3565b811115610d55576040517f08c379a0000000000000000000000000000000000000000000000000000000008152600401610d4c90611940565b60405180910390fd5b80600360003373ffffffffffffffffffffffffffffffffffffffff1673ffffffffffffffffffffffffffffffffffffffff1681526020019081526020016000206000828254610da49190611130565b925050819055508060016000828254610dbd9190611463565b9250508190555042600560003373ffffffffffffffffffffffffffffffffffffffff1673ffffffffffffffffffffffffffffffffffffffff168152602001908152602001600020819055503373ffffffffffffffffffffffffffffffffffffffff166108fc829081150290604051600060405180830381858888f19350505050158015610e4e573d6000803e3d6000fd5b503373ffffffffffffffffffffffffffffffffffffffff167feae9cfbc77fdd40ca899f36b608256063b2bc9d8178b0220f7ad513e178d67308242604051610e97929190611497565b60405180910390a26000600260006101000a81548160ff02191690831515021790555050565b600260009054906101000a900460ff1681565b60056020528060005260406000206000915090505481565b60008054906101000a900473ffffffffffffffffffffffffffffffffffffffff1673ffffffffffffffffffffffffffffffffffffffff163373ffffffffffffffffffffffffffffffffffffffff1614610f76576040517f08c379a0000000000000000000000000000000000000000000000000000000008152600401610f6d9061150c565b60405180910390fd5b80600073ffffffffffffffffffffffffffffffffffffffff168173ffffffffffffffffffffffffffffffffffffffff1603610fe6576040517f08c379a0000000000000000000000000000000000000000000000000000000008152600401610fdd90611578565b60405180910390fd5b3073ffffffffffffffffffffffffffffffffffffffff168173ffffffffffffffffffffffffffffffffffffffff1603611054576040517f08c379a000000000000000000000000000000000000000000000000000000000815260040161104b906115e4565b60405180910390fd5b816000806101000a81548173ffffffffffffffffffffffffffffffffffffffff021916908373ffffffffffffffffffffffffffffffffffffffff1602179055505050565b60046020528060005260406000206000915054906101000a900460ff1681565b6000806110c36110cc565b90508091505090565b60007ff0c57e16840df040f15088dc2f81fe391c3923bec73e23a9662efc9c229c6a0060001b905090565b6000819050919050565b7f4e487b7100000000000000000000000000000000000000000000000000000000600052601160045260246000fd5b600061113b826110f7565b9150611146836110f7565b925082820190508082111561115e5761115d611101565b5b92915050565b61116d816110f7565b82525050565b60006020820190506111886000830184611164565b92915050565b600080fd5b600073ffffffffffffffffffffffffffffffffffffffff82169050919050565b60006111be82611193565b9050919050565b6111ce816111b3565b81146111d957600080fd5b50565b6000813590506111eb816111c5565b92915050565b600060ff82169050919050565b611207816111f1565b811461121257600080fd5b50565b600081359050611224816111fe565b92915050565b600080604083850312156112415761124061118e565b5b600061124f858286016111dc565b925050602061126085828601611215565b9150509250929050565b611273816110f7565b811461127e57600080fd5b50565b6000813590506112908161126a565b92915050565b6000602082840312156112ac576112ab61118e565b5b60006112ba84828501611281565b91505092915050565b6112cc816111b3565b82525050565b60006020820190506112e760008301846112c3565b92915050565b6000602082840312156113035761130261118e565b5b6000611311848285016111dc565b91505092915050565b60008115159050919050565b61132f8161131a565b82525050565b600060208201905061134a6000830184611326565b92915050565b611359816111f1565b82525050565b60006020820190506113746000830184611350565b92915050565b600082825260208201905092915050565b7f4e6f206f75747374616e64696e67206465627400000000000000000000000000600082015250565b60006113c160138361137a565b91506113cc8261138b565b602082019050919050565b600060208201905081810360008301526113f0816113b4565b9050919050565b7f4d7573742073656e642045544820746f20726570617900000000000000000000600082015250565b600061142d60168361137a565b9150611438826113f7565b602082019050919050565b6000602082019050818103600083015261145c81611420565b9050919050565b600061146e826110f7565b9150611479836110f7565b925082820390508181111561149157611490611101565b5b92915050565b60006040820190506114ac6000830185611164565b6114b96020830184611164565b9392505050565b7f4e6f74206f776e65720000000000000000000000000000000000000000000000600082015250565b60006114f660098361137a565b9150611501826114c0565b602082019050919050565b60006020820190508181036000830152611525816114e9565b9050919050565b7f496e76616c696420616464726573733a207a65726f2061646472657373000000600082015250565b6000611562601d8361137a565b915061156d8261152c565b602082019050919050565b6000602082019050818103600083015261159181611555565b9050919050565b7f496e76616c696420616464726573733a2073656c660000000000000000000000600082015250565b60006115ce60158361137a565b91506115d982611598565b602082019050919050565b600060208201905081810360008301526115fd816115c1565b9050919050565b7f496e76616c6964206372656469742073636f7265000000000000000000000000600082015250565b600061163a60148361137a565b915061164582611604565b602082019050919050565b600060208201905081810360008301526116698161162d565b9050919050565b7f4e6f207265656e7472616e637900000000000000000000000000000000000000600082015250565b60006116a6600d8361137a565b91506116b182611670565b602082019050919050565b600060208201905081810360008301526116d581611699565b9050919050565b7f496e73756666696369656e742062616c616e6365000000000000000000000000600082015250565b600061171260148361137a565b915061171d826116dc565b602082019050919050565b6000602082019050818103600083015261174181611705565b9050919050565b6000819050919050565b600067ffffffffffffffff82169050919050565b6000819050919050565b600061178b61178661178184611748565b611766565b611752565b9050919050565b61179b81611770565b82525050565b60006020820190506117b66000830184611792565b92915050565b7f416d6f756e74206d7573742062652067726561746572207468616e2030000000600082015250565b60006117f2601d8361137a565b91506117fd826117bc565b602082019050919050565b60006020820190508181036000830152611821816117e5565b9050919050565b7f4372656469742073636f726520746f6f206c6f77000000000000000000000000600082015250565b600061185e60148361137a565b915061186982611828565b602082019050919050565b6000602082019050818103600083015261188d81611851565b9050919050565b7f4e487b7100000000000000000000000000000000000000000000000000000000600052601260045260246000fd5b60006118ce826110f7565b91506118d9836110f7565b9250826118e9576118e8611894565b5b828204905092915050565b7f496e73756666696369656e742066756e647320696e2074686520706f6f6c0000600082015250565b600061192a601e8361137a565b9150611935826118f4565b602082019050919050565b600060208201905081810360008301526119598161191d565b905091905056fea2646970667358221220fc621d1b949754304ff178db56f1e5b94fe6efd3592536b6891b7388af7430db64736f6c634300081c0033",
  "linkReferences": {},
  "deployedLinkReferences": {}
}